{
  "contractName": "TicTacToe",
  "abi": [
    {
      "anonymous": false,
      "inputs": [
        {
          "indexed": false,
          "internalType": "uint256",
          "name": "value",
          "type": "uint256"
        }
      ],
      "name": "BoughtTokens",
      "type": "event"
    },
    {
      "anonymous": false,
      "inputs": [
        {
          "indexed": false,
          "internalType": "uint256",
          "name": "gameId",
          "type": "uint256"
        },
        {
          "indexed": false,
          "internalType": "address",
          "name": "gameCreator",
          "type": "address"
        }
      ],
      "name": "GameCreated",
      "type": "event"
    },
    {
      "anonymous": false,
      "inputs": [
        {
          "indexed": false,
          "internalType": "uint256",
          "name": "gameId",
          "type": "uint256"
        },
        {
          "indexed": false,
          "internalType": "string",
          "name": "winStatus",
          "type": "string"
        }
      ],
      "name": "GameOver",
      "type": "event"
    },
    {
      "anonymous": false,
      "inputs": [
        {
          "indexed": false,
          "internalType": "uint256",
          "name": "gameId",
          "type": "uint256"
        },
        {
          "indexed": false,
          "internalType": "address",
          "name": "player",
          "type": "address"
        },
        {
          "indexed": false,
          "internalType": "string",
          "name": "playerID",
          "type": "string"
        }
      ],
      "name": "JoinedGame",
      "type": "event"
    },
    {
      "anonymous": false,
      "inputs": [
        {
          "indexed": false,
          "internalType": "string",
          "name": "message",
          "type": "string"
        }
      ],
      "name": "Message",
      "type": "event"
    },
    {
      "anonymous": false,
      "inputs": [
        {
          "indexed": false,
          "internalType": "uint256",
          "name": "gameId",
          "type": "uint256"
        },
        {
          "indexed": false,
          "internalType": "uint256",
          "name": "x",
          "type": "uint256"
        },
        {
          "indexed": false,
          "internalType": "uint256",
          "name": "y",
          "type": "uint256"
        }
      ],
      "name": "PlayerMoved",
      "type": "event"
    },
    {
      "anonymous": false,
      "inputs": [
        {
          "indexed": false,
          "internalType": "address",
          "name": "player",
          "type": "address"
        }
      ],
      "name": "WithdrawMoney",
      "type": "event"
    },
    {
      "constant": true,
      "inputs": [
        {
          "internalType": "address",
          "name": "",
          "type": "address"
        }
      ],
      "name": "playerTokenCount",
      "outputs": [
        {
          "internalType": "uint256",
          "name": "",
          "type": "uint256"
        }
      ],
      "payable": false,
      "stateMutability": "view",
      "type": "function"
    },
    {
      "constant": false,
      "inputs": [],
      "name": "buyToken",
      "outputs": [],
      "payable": true,
      "stateMutability": "payable",
      "type": "function"
    },
    {
      "constant": false,
      "inputs": [],
      "name": "convertTokenToEther",
      "outputs": [],
      "payable": false,
      "stateMutability": "nonpayable",
      "type": "function"
    },
    {
      "constant": false,
      "inputs": [],
      "name": "createNewGame",
      "outputs": [
        {
          "internalType": "uint256",
          "name": "",
          "type": "uint256"
        }
      ],
      "payable": false,
      "stateMutability": "nonpayable",
      "type": "function"
    },
    {
      "constant": false,
      "inputs": [
        {
          "internalType": "uint256",
          "name": "_gameId",
          "type": "uint256"
        }
      ],
      "name": "joinAGame",
      "outputs": [
        {
          "internalType": "bool",
          "name": "",
          "type": "bool"
        },
        {
          "internalType": "string",
          "name": "",
          "type": "string"
        }
      ],
      "payable": false,
      "stateMutability": "nonpayable",
      "type": "function"
    },
    {
      "constant": false,
      "inputs": [
        {
          "internalType": "uint256",
          "name": "_gameId",
          "type": "uint256"
        },
        {
          "internalType": "uint256",
          "name": "_x",
          "type": "uint256"
        },
        {
          "internalType": "uint256",
          "name": "_y",
          "type": "uint256"
        }
      ],
      "name": "makeAMove",
      "outputs": [
        {
          "internalType": "bool",
          "name": "",
          "type": "bool"
        },
        {
          "internalType": "string",
          "name": "",
          "type": "string"
        }
      ],
      "payable": false,
      "stateMutability": "nonpayable",
      "type": "function"
    }
  ],
  "bytecode": "0x608060405234801561001057600080fd5b506129bf806100206000396000f3fe6080604052600436106100555760003560e01c806358cc7b401461005a578063832e94ac1461012d578063a482171914610144578063c5b9d47c1461014e578063eb1924c51461020d578063eb87eb5e14610272575b600080fd5b34801561006657600080fd5b506100a76004803603606081101561007d57600080fd5b8101908080359060200190929190803590602001909291908035906020019092919050505061029d565b604051808315151515815260200180602001828103825283818151815260200191508051906020019080838360005b838110156100f15780820151818401526020810190506100d6565b50505050905090810190601f16801561011e5780820380516001836020036101000a031916815260200191505b50935050505060405180910390f35b34801561013957600080fd5b50610142610dbe565b005b61014c610f90565b005b34801561015a57600080fd5b506101876004803603602081101561017157600080fd5b8101908080359060200190929190505050611134565b604051808315151515815260200180602001828103825283818151815260200191508051906020019080838360005b838110156101d15780820151818401526020810190506101b6565b50505050905090810190601f1680156101fe5780820380516001836020036101000a031916815260200191505b50935050505060405180910390f35b34801561021957600080fd5b5061025c6004803603602081101561023057600080fd5b81019080803573ffffffffffffffffffffffffffffffffffffffff1690602001909291905050506116cc565b6040518082815260200191505060405180910390f35b34801561027e57600080fd5b506102876116e4565b6040518082815260200191505060405180910390f35b60006060600073ffffffffffffffffffffffffffffffffffffffff1660008087815260200190815260200160002060000160009054906101000a900473ffffffffffffffffffffffffffffffffffffffff1673ffffffffffffffffffffffffffffffffffffffff1614806103725750600073ffffffffffffffffffffffffffffffffffffffff1660008087815260200190815260200160002060010160009054906101000a900473ffffffffffffffffffffffffffffffffffffffff1673ffffffffffffffffffffffffffffffffffffffff16145b15610420577f51a7f65c6325882f237d4aeb43228179cfad48b868511d508e24b4437a8191376040518080602001828103825260208152602001807f416c6c20706c617965727320617265206e6f742061737369676e65642079657481525060200191505060405180910390a160006040518060400160405280602081526020017f416c6c20706c617965727320617265206e6f742061737369676e65642079657481525091509150610db6565b6000600381111561042d57fe5b60008087815260200190815260200160002060010160149054906101000a900460ff16600381111561045b57fe5b14610509577f51a7f65c6325882f237d4aeb43228179cfad48b868511d508e24b4437a81913760405180806020018281038252600e8152602001807f47616d652068617320656e64656400000000000000000000000000000000000081525060200191505060405180910390a160006040518060400160405280600f81526020017f47616d652068617320656e64656421000000000000000000000000000000000081525091509150610db6565b610512856119aa565b73ffffffffffffffffffffffffffffffffffffffff163373ffffffffffffffffffffffffffffffffffffffff16146105ed577f51a7f65c6325882f237d4aeb43228179cfad48b868511d508e24b4437a8191376040518080602001828103825260138152602001807f4e6f7420796f7572207475726e2062756464790000000000000000000000000081525060200191505060405180910390a160006040518060400160405280601481526020017f4e6f7420796f7572207475726e2062756464792100000000000000000000000081525091509150610db6565b600060028111156105fa57fe5b600080878152602001908152602001600020600201856003811061061a57fe5b01846003811061062657fe5b602091828204019190069054906101000a900460ff16600281111561064757fe5b146106bb577f51a7f65c6325882f237d4aeb43228179cfad48b868511d508e24b4437a8191376040518080602001828103825260228152602001806129696022913960400191505060405180910390a160006040518060600160405280602181526020016129486021913991509150610db6565b60008086815260200190815260200160002060010160159054906101000a900460ff1660008087815260200190815260200160002060020185600381106106fe57fe5b01846003811061070a57fe5b602091828204019190066101000a81548160ff0219169083600281111561072d57fe5b02179055507f0d1bd59f5f299a29338248bf9f2292c4097a823077181cdcec15fbefc936907a85858560405180848152602001838152602001828152602001935050505060405180910390a1600061078486611ab1565b90506000600381111561079357fe5b81600381111561079f57fe5b14610d24578060008088815260200190815260200160002060010160146101000a81548160ff021916908360038111156107d557fe5b0217905550600160038111156107e757fe5b8160038111156107f357fe5b14156109df576002600080600089815260200190815260200160002060000160009054906101000a900473ffffffffffffffffffffffffffffffffffffffff1673ffffffffffffffffffffffffffffffffffffffff1673ffffffffffffffffffffffffffffffffffffffff168152602001908152602001600020600081548092919060010191905055506002600080600089815260200190815260200160002060010160009054906101000a900473ffffffffffffffffffffffffffffffffffffffff1673ffffffffffffffffffffffffffffffffffffffff1673ffffffffffffffffffffffffffffffffffffffff16815260200190815260200160002060008154809291906001900391905055507f51a7f65c6325882f237d4aeb43228179cfad48b868511d508e24b4437a8191376040518080602001828103825260128152602001807f506c61796572206f6e652068617320776f6e000000000000000000000000000081525060200191505060405180910390a17fdfd3c5ade10a24061c20e8e2ddfa0ff079b2a7a9edbf61ac80ecb5da31bd53e0866040518082815260200180602001828103825260128152602001807f506c61796572206f6e652068617320776f6e00000000000000000000000000008152506020019250505060405180910390a1610cff565b600260038111156109ec57fe5b8160038111156109f857fe5b1415610be4576002600080600089815260200190815260200160002060000160009054906101000a900473ffffffffffffffffffffffffffffffffffffffff1673ffffffffffffffffffffffffffffffffffffffff1673ffffffffffffffffffffffffffffffffffffffff16815260200190815260200160002060008154809291906001900391905055506002600080600089815260200190815260200160002060010160009054906101000a900473ffffffffffffffffffffffffffffffffffffffff1673ffffffffffffffffffffffffffffffffffffffff1673ffffffffffffffffffffffffffffffffffffffff168152602001908152602001600020600081548092919060010191905055507f51a7f65c6325882f237d4aeb43228179cfad48b868511d508e24b4437a8191376040518080602001828103825260128152602001807f506c617965722074776f2068617320776f6e000000000000000000000000000081525060200191505060405180910390a17fdfd3c5ade10a24061c20e8e2ddfa0ff079b2a7a9edbf61ac80ecb5da31bd53e0866040518082815260200180602001828103825260128152602001807f506c617965722074776f2068617320776f6e00000000000000000000000000008152506020019250505060405180910390a1610cfe565b7fdfd3c5ade10a24061c20e8e2ddfa0ff079b2a7a9edbf61ac80ecb5da31bd53e0866040518082815260200180602001828103825260048152602001807f44726177000000000000000000000000000000000000000000000000000000008152506020019250505060405180910390a17f51a7f65c6325882f237d4aeb43228179cfad48b868511d508e24b4437a8191376040518080602001828103825260048152602001807f447261770000000000000000000000000000000000000000000000000000000081525060200191505060405180910390a160006040518060400160405280600981526020017f447261772047616d6500000000000000000000000000000000000000000000008152509250925050610db6565b5b60016040518060600160405280602981526020016128d5602991399250925050610db6565b610d2d86611beb565b7f51a7f65c6325882f237d4aeb43228179cfad48b868511d508e24b4437a8191376040518080602001828103825260178152602001807f5761697420666f72206170706f6e656e7473207475726e00000000000000000081525060200191505060405180910390a160016040518060800160405280604a81526020016128fe604a913992509250505b935093915050565b6000600260003373ffffffffffffffffffffffffffffffffffffffff1673ffffffffffffffffffffffffffffffffffffffff1681526020019081526020016000205411610e56576040517f08c379a00000000000000000000000000000000000000000000000000000000081526004018080602001828103825260228152602001806128b36022913960400191505060405180910390fd5b3373ffffffffffffffffffffffffffffffffffffffff166108fc67016345785d8a0000600260003373ffffffffffffffffffffffffffffffffffffffff1673ffffffffffffffffffffffffffffffffffffffff16815260200190815260200160002054029081150290604051600060405180830381858888f19350505050158015610ee5573d6000803e3d6000fd5b506000600260003373ffffffffffffffffffffffffffffffffffffffff1673ffffffffffffffffffffffffffffffffffffffff168152602001908152602001600020819055507fcf0ac9d0bf2c40136262176362c6c7158e73eb358fc9efc2070ec2c5d549c13033604051808273ffffffffffffffffffffffffffffffffffffffff1673ffffffffffffffffffffffffffffffffffffffff16815260200191505060405180910390a1565b600034118015610fa8575067016345785d8a00003410155b610ffd576040517f08c379a000000000000000000000000000000000000000000000000000000000815260040180806020018281038252604681526020018061286d6046913960600191505060405180910390fd5b67016345785d8a0000348161100e57fe5b04600260003373ffffffffffffffffffffffffffffffffffffffff1673ffffffffffffffffffffffffffffffffffffffff1681526020019081526020016000205401600260003373ffffffffffffffffffffffffffffffffffffffff1673ffffffffffffffffffffffffffffffffffffffff168152602001908152602001600020819055507ffe1367e498701f2dfab80a3d41740d46fd7cba533430e611917f0f3df823279a346040518082815260200191505060405180910390a17f51a7f65c6325882f237d4aeb43228179cfad48b868511d508e24b4437a8191376040518080602001828103825260078152602001807f54657374696e670000000000000000000000000000000000000000000000000081525060200191505060405180910390a1565b600060606000600260003373ffffffffffffffffffffffffffffffffffffffff1673ffffffffffffffffffffffffffffffffffffffff16815260200190815260200160002054116111ed576040517f08c379a000000000000000000000000000000000000000000000000000000000815260040180806020018281038252601c8152602001807f596f75206e65656420746f2062757920746f6b656e732066697273740000000081525060200191505060405180910390fd5b6001548311156112385760006040518060400160405280601281526020017f4e6f20737563682067616d652065786973740000000000000000000000000000815250915091506116c7565b6000600381111561124557fe5b60008085815260200190815260200160002060010160149054906101000a900460ff16600381111561127357fe5b146112b95760006040518060400160405280601981526020017f47616d652068617320616c72656164792066696e697368656400000000000000815250915091506116c7565b60008084815260200190815260200160002060050160009054906101000a900460ff1680156113495750600073ffffffffffffffffffffffffffffffffffffffff1660008085815260200190815260200160002060010160009054906101000a900473ffffffffffffffffffffffffffffffffffffffff1673ffffffffffffffffffffffffffffffffffffffff16145b15611487573360008085815260200190815260200160002060010160006101000a81548173ffffffffffffffffffffffffffffffffffffffff021916908373ffffffffffffffffffffffffffffffffffffffff1602179055507f7adc62e298c0fc22854d9872b8ae41e292d11881f852623da2d5c25a4a1d4c9a8333604051808381526020018273ffffffffffffffffffffffffffffffffffffffff1673ffffffffffffffffffffffffffffffffffffffff168152602001806020018281038252600a8152602001807f506c617965722054776f00000000000000000000000000000000000000000000815250602001935050505060405180910390a160016040518060400160405280601481526020017f4a6f696e656420617320706c617965722074776f000000000000000000000000815250915091506116c7565b600073ffffffffffffffffffffffffffffffffffffffff1660008085815260200190815260200160002060000160009054906101000a900473ffffffffffffffffffffffffffffffffffffffff1673ffffffffffffffffffffffffffffffffffffffff1614801561151e57506000151560008085815260200190815260200160002060050160009054906101000a900460ff161515145b1561168a573360008085815260200190815260200160002060000160006101000a81548173ffffffffffffffffffffffffffffffffffffffff021916908373ffffffffffffffffffffffffffffffffffffffff1602179055507f7adc62e298c0fc22854d9872b8ae41e292d11881f852623da2d5c25a4a1d4c9a8333604051808381526020018273ffffffffffffffffffffffffffffffffffffffff1673ffffffffffffffffffffffffffffffffffffffff168152602001806020018281038252600a8152602001807f506c61796572204f6e6500000000000000000000000000000000000000000000815250602001935050505060405180910390a1600160008085815260200190815260200160002060050160006101000a81548160ff02191690831515021790555060016040518060400160405280601481526020017f4a6f696e656420617320506c61796572204f6e65000000000000000000000000815250915091506116c7565b60006040518060400160405280601c81526020017f426f746820736c6f74732061726520616c72656164792054616b656e00000000815250915091505b915091565b60026020528060005260406000206000915090505481565b600080600260003373ffffffffffffffffffffffffffffffffffffffff1673ffffffffffffffffffffffffffffffffffffffff168152602001908152602001600020541161179a576040517f08c379a000000000000000000000000000000000000000000000000000000000815260040180806020018281038252601c8152602001807f596f75206e65656420746f2062757920746f6b656e732066697273740000000081525060200191505060405180910390fd5b6117a261264a565b6000816040019060038111156117b457fe5b908160038111156117c157fe5b815250506001816060019060028111156117d757fe5b908160028111156117e457fe5b8152505060008160a0019015159081151581525050600180540160018190555080600080600154815260200190815260200160002060008201518160000160006101000a81548173ffffffffffffffffffffffffffffffffffffffff021916908373ffffffffffffffffffffffffffffffffffffffff16021790555060208201518160010160006101000a81548173ffffffffffffffffffffffffffffffffffffffff021916908373ffffffffffffffffffffffffffffffffffffffff16021790555060408201518160010160146101000a81548160ff021916908360038111156118cb57fe5b021790555060608201518160010160156101000a81548160ff021916908360028111156118f457fe5b02179055506080820151816002019060036119109291906126ca565b5060a08201518160050160006101000a81548160ff0219169083151502179055509050507fc3e0f84839dc888c892a013d10c8f9d6dc05a21a879d0ce468ca558013e9121c60015433604051808381526020018273ffffffffffffffffffffffffffffffffffffffff1673ffffffffffffffffffffffffffffffffffffffff1681526020019250505060405180910390a160015491505090565b6000600160028111156119b957fe5b60008084815260200190815260200160002060010160159054906101000a900460ff1660028111156119e757fe5b1415611a2a5760008083815260200190815260200160002060000160009054906101000a900473ffffffffffffffffffffffffffffffffffffffff169050611aac565b600280811115611a3657fe5b60008084815260200190815260200160002060010160159054906101000a900460ff166002811115611a6457fe5b1415611aa75760008083815260200190815260200160002060010160009054906101000a900473ffffffffffffffffffffffffffffffffffffffff169050611aac565b600090505b919050565b600080611abd83611ca3565b905060016002811115611acc57fe5b816002811115611ad857fe5b1415611ae8576001915050611be6565b600280811115611af457fe5b816002811115611b0057fe5b1415611b10576002915050611be6565b611b1983611ed8565b905060016002811115611b2857fe5b816002811115611b3457fe5b1415611b44576001915050611be6565b600280811115611b5057fe5b816002811115611b5c57fe5b1415611b6c576002915050611be6565b611b758361210d565b905060016002811115611b8457fe5b816002811115611b9057fe5b1415611ba0576001915050611be6565b600280811115611bac57fe5b816002811115611bb857fe5b1415611bc8576002915050611be6565b611bd183612511565b15611be0576003915050611be6565b60009150505b919050565b60016002811115611bf857fe5b60008083815260200190815260200160002060010160159054906101000a900460ff166002811115611c2657fe5b1415611c6857600260008083815260200190815260200160002060010160156101000a81548160ff02191690836002811115611c5e57fe5b0217905550611ca0565b600160008083815260200190815260200160002060010160156101000a81548160ff02191690836002811115611c9a57fe5b02179055505b50565b600080600090505b60038160ff161015611ecd576000808481526020019081526020016000206002018160ff1660038110611cda57fe5b01600160038110611ce757fe5b602091828204019190069054906101000a900460ff166002811115611d0857fe5b6000808581526020019081526020016000206002018260ff1660038110611d2b57fe5b01600060038110611d3857fe5b602091828204019190069054906101000a900460ff166002811115611d5957fe5b148015611e0557506000808481526020019081526020016000206002018160ff1660038110611d8457fe5b01600260038110611d9157fe5b602091828204019190069054906101000a900460ff166002811115611db257fe5b6000808581526020019081526020016000206002018260ff1660038110611dd557fe5b01600160038110611de257fe5b602091828204019190069054906101000a900460ff166002811115611e0357fe5b145b8015611e6d575060006002811115611e1957fe5b6000808581526020019081526020016000206002018260ff1660038110611e3c57fe5b01600060038110611e4957fe5b602091828204019190069054906101000a900460ff166002811115611e6a57fe5b14155b15611ec0576000808481526020019081526020016000206002018160ff1660038110611e9557fe5b01600060038110611ea257fe5b602091828204019190069054906101000a900460ff16915050611ed3565b8080600101915050611cab565b50600090505b919050565b600080600090505b60038160ff16101561210257600080848152602001908152602001600020600201600160038110611f0d57fe5b018160ff1660038110611f1c57fe5b602091828204019190069054906101000a900460ff166002811115611f3d57fe5b600080858152602001908152602001600020600201600060038110611f5e57fe5b018260ff1660038110611f6d57fe5b602091828204019190069054906101000a900460ff166002811115611f8e57fe5b14801561203a5750600080848152602001908152602001600020600201600260038110611fb757fe5b018160ff1660038110611fc657fe5b602091828204019190069054906101000a900460ff166002811115611fe757fe5b60008085815260200190815260200160002060020160016003811061200857fe5b018260ff166003811061201757fe5b602091828204019190069054906101000a900460ff16600281111561203857fe5b145b80156120a257506000600281111561204e57fe5b60008085815260200190815260200160002060020160006003811061206f57fe5b018260ff166003811061207e57fe5b602091828204019190069054906101000a900460ff16600281111561209f57fe5b14155b156120f5576000808481526020019081526020016000206002016000600381106120c857fe5b018160ff16600381106120d757fe5b602091828204019190069054906101000a900460ff16915050612108565b8080600101915050611ee0565b50600090505b919050565b600080600083815260200190815260200160002060020160016003811061213057fe5b0160016003811061213d57fe5b602091828204019190069054906101000a900460ff16600281111561215e57fe5b60008084815260200190815260200160002060020160006003811061217f57fe5b0160006003811061218c57fe5b602091828204019190069054906101000a900460ff1660028111156121ad57fe5b14801561225557506000808381526020019081526020016000206002016002600381106121d657fe5b016002600381106121e357fe5b602091828204019190069054906101000a900460ff16600281111561220457fe5b60008084815260200190815260200160002060020160016003811061222557fe5b0160016003811061223257fe5b602091828204019190069054906101000a900460ff16600281111561225357fe5b145b80156122bb57506000600281111561226957fe5b60008084815260200190815260200160002060020160006003811061228a57fe5b0160006003811061229757fe5b602091828204019190069054906101000a900460ff1660028111156122b857fe5b14155b1561230b576000808381526020019081526020016000206002016000600381106122e157fe5b016000600381106122ee57fe5b602091828204019190069054906101000a900460ff16905061250c565b60008083815260200190815260200160002060020160016003811061232c57fe5b0160016003811061233957fe5b602091828204019190069054906101000a900460ff16600281111561235a57fe5b60008084815260200190815260200160002060020160006003811061237b57fe5b0160026003811061238857fe5b602091828204019190069054906101000a900460ff1660028111156123a957fe5b14801561245157506000808381526020019081526020016000206002016002600381106123d257fe5b016000600381106123df57fe5b602091828204019190069054906101000a900460ff16600281111561240057fe5b60008084815260200190815260200160002060020160016003811061242157fe5b0160016003811061242e57fe5b602091828204019190069054906101000a900460ff16600281111561244f57fe5b145b80156124b757506000600281111561246557fe5b60008084815260200190815260200160002060020160006003811061248657fe5b0160026003811061249357fe5b602091828204019190069054906101000a900460ff1660028111156124b457fe5b14155b15612507576000808381526020019081526020016000206002016000600381106124dd57fe5b016002600381106124ea57fe5b602091828204019190069054906101000a900460ff16905061250c565b600090505b919050565b6000806000905060008090505b60038160ff16101561262b5760008090505b60038160ff16101561261d576001600281111561254957fe5b6000808781526020019081526020016000206002018360ff166003811061256c57fe5b018260ff166003811061257b57fe5b602091828204019190069054906101000a900460ff16600281111561259c57fe5b148061260457506002808111156125af57fe5b6000808781526020019081526020016000206002018360ff16600381106125d257fe5b018260ff16600381106125e157fe5b602091828204019190069054906101000a900460ff16600281111561260257fe5b145b15612610576001830192505b8080600101915050612530565b50808060010191505061251e565b50600981141561263f576001915050612645565b60009150505b919050565b6040518060c00160405280600073ffffffffffffffffffffffffffffffffffffffff168152602001600073ffffffffffffffffffffffffffffffffffffffff1681526020016000600381111561269c57fe5b8152602001600060028111156126ae57fe5b81526020016126bb612718565b81526020016000151581525090565b8260038101928215612707579160200282015b82811115612706578251829060036126f6929190612745565b50916020019190600101906126dd565b5b50905061271491906127e7565b5090565b60405180606001604052806003905b61272f612813565b8152602001906001900390816127275790505090565b826003601f016020900481019282156127d65791602002820160005b838211156127a757835183826101000a81548160ff0219169083600281111561278657fe5b02179055509260200192600101602081600001049283019260010302612761565b80156127d45782816101000a81549060ff02191690556001016020816000010492830192600103026127a7565b505b5090506127e39190612835565b5090565b61281091905b8082111561280c57600081816128039190612865565b506001016127ed565b5090565b90565b6040518060600160405280600390602082028038833980820191505090505090565b61286291905b8082111561285e57600081816101000a81549060ff02191690555060010161283b565b5090565b90565b506000905556fe506c656173652073656e6420736f6d652076616c6964206e756d626572206f6620657468657220746f2062757920746f6b656e732867726561746572207468616e20302e3129596f75206e65656420746f206861766520736f6d6520746f6b656e73206669727374436f6e67726174756c6174696f6e732e20596f75206861766520776f6e203220746963546f6b656e73596f7572206d6f766520686173206265656e207265636f726465642e20506c65617365207761697420666f7220616e6f7468657220706c6179657220746f206d616b652061206d6f766554686520646573697265642063656c6c20697320616c72656164792074616b656e54686520646573697265642063656c6c20697320616c72656164792074616b656e20a265627a7a72315820962ed9cd9a70f6e695bbcaa7ff7b5ad07a87f20cd4a609af029201200364680364736f6c634300050c0032",
  "source": "pragma solidity ^0.5.1;\r\n\r\ncontract TicTacToe{\r\n\r\n    //TODO : Do proper comments\r\n    \r\n    \r\n    //enum contains all possible values of Winner and Players\r\n    enum Player { none, playerOne, playerTwo }\r\n    enum Winner { none, playerOne, playerTwo, draw }\r\n    \r\n    //Data structure of Game which will be created by user\r\n    struct Game{\r\n        address playerOne;\r\n        address playerTwo;\r\n        Winner winner;\r\n        Player playerTurn;\r\n        Player[3][3] board;\r\n        bool assignedPlayerOne;\r\n    }\r\n    \r\n    //we have to create a mapping to store all active and created games\r\n    mapping(uint256 => Game) private games;\r\n    \r\n    //totalNumberOfGames contains  index of Games\r\n    uint256 totalNumberOfGames;\r\n    \r\n    //Buy tokens first\r\n    mapping(address => uint) public playerTokenCount;\r\n    \r\n    function buyToken() public payable{\r\n        require(msg.value > 0 && msg.value >= 100000000000000000, \"Please send some valid number of ether to buy tokens(greater than 0.1)\");\r\n        //let price be 1 token for 0.1 eth\r\n        // number of token = eth sent * 10\r\n        playerTokenCount[msg.sender] = playerTokenCount[msg.sender] + (msg.value/100000000000000000);\r\n        emit BoughtTokens(msg.value);\r\n        emit Message(\"Testing\");\r\n    }\r\n    \r\n    //This function is responsible to convert the token which a user a bought\r\n    //into ether which can be stored in ethereum wallet\r\n    function convertTokenToEther() public{\r\n        require(playerTokenCount[msg.sender] > 0 ,\"You need to have some tokens first\");\r\n        msg.sender.transfer(playerTokenCount[msg.sender]*100000000000000000);\r\n        playerTokenCount[msg.sender] = 0;\r\n        emit WithdrawMoney(msg.sender);\r\n    }\r\n    \r\n    //Use tokens to enter the game\r\n    function createNewGame() hasTicCredits public returns(uint256){\r\n        //creation of Game is free of tokens\r\n        Game memory game;\r\n        game.winner = Winner.none;\r\n        game.playerTurn = Player.playerOne;\r\n        game.assignedPlayerOne = false;\r\n        totalNumberOfGames = totalNumberOfGames + 1;\r\n        games[totalNumberOfGames] = game;\r\n        emit GameCreated(totalNumberOfGames, msg.sender);\r\n        return totalNumberOfGames;\r\n    }\r\n    \r\n    //Join a game by knowing the gameId of the game\r\n    function joinAGame(uint256 _gameId) hasTicCredits public returns(bool,string memory){\r\n        //First check if game exist or not\r\n        if(_gameId > totalNumberOfGames){\r\n            return (false, \"No such game exist\");\r\n        }\r\n        //if Game exist but was finished then return false\r\n        if(games[_gameId].winner != Winner.none){\r\n            return (false , \"Game has already finished\");\r\n        }\r\n        //assign position to players\r\n        //check for empty slots as playerOne or playerTwo\r\n        if(games[_gameId].assignedPlayerOne && games[_gameId].playerTwo == address(0)){\r\n            games[_gameId].playerTwo = msg.sender;\r\n            emit JoinedGame(_gameId, msg.sender,\"Player Two\");\r\n            return (true, \"Joined as player two\");\r\n        }\r\n        if(games[_gameId].playerOne == address(0) && games[_gameId].assignedPlayerOne == false){\r\n            games[_gameId].playerOne = msg.sender;\r\n            emit JoinedGame(_gameId,msg.sender,\"Player One\");\r\n            games[_gameId].assignedPlayerOne = true;\r\n            return (true, \"Joined as Player One\");\r\n        }\r\n        //if both slots are taken then return false\r\n        return (false,\"Both slots are already Taken\");\r\n    }\r\n    \r\n    function makeAMove(uint256 _gameId, uint _x, uint _y) public returns(bool,string memory){\r\n        \r\n        //check if all players are assigned or not\r\n        if(games[_gameId].playerOne == address(0) || games[_gameId].playerTwo == address(0)){\r\n            emit Message(\"All players are not assigned yet\");\r\n            return (false, \"All players are not assigned yet\");\r\n        }\r\n        \r\n        //check if game has ended or not\r\n        if(games[_gameId].winner != Winner.none){\r\n            emit Message(\"Game has ended\");\r\n            return (false, \"Game has ended!\");\r\n        }\r\n        \r\n        //get current player and check if it is player's turn or not\r\n        if(msg.sender != checkPlayerTurn(_gameId)){\r\n            emit Message(\"Not your turn buddy\");\r\n            return (false, \"Not your turn buddy!\");\r\n        }\r\n\r\n        //Check if desired cell is already used or not\r\n        if(games[_gameId].board[_x][_y] != Player.none){\r\n            emit Message(\"The desired cell is already taken \");\r\n            return (false, \"The desired cell is already taken\");\r\n        }\r\n        \r\n        //add player marker to the cell in board\r\n        games[_gameId].board[_x][_y] = games[_gameId].playerTurn;\r\n        emit PlayerMoved(_gameId, _x, _y);\r\n        \r\n        //check for Winner\r\n        Winner  winner = calculateWinner(_gameId);\r\n        if(winner != Winner.none){\r\n            games[_gameId].winner = winner;\r\n            //decrease one token from the loser accounts and add it to the winners account\r\n            if(winner == Winner.playerOne){\r\n                playerTokenCount[games[_gameId].playerOne]++;\r\n                playerTokenCount[games[_gameId].playerTwo]--;\r\n                emit Message(\"Player one has won\");\r\n                emit GameOver(_gameId,\"Player one has won\");\r\n            }\r\n            else if(winner == Winner.playerTwo){\r\n                playerTokenCount[games[_gameId].playerOne]--;\r\n                playerTokenCount[games[_gameId].playerTwo]++;\r\n                emit Message(\"Player two has won\");\r\n                emit GameOver(_gameId,\"Player two has won\");\r\n            }\r\n            else{\r\n                emit GameOver(_gameId,\"Draw\");\r\n                emit Message(\"Draw\");\r\n                return(false,\"Draw Game\");\r\n            }\r\n            return (true, \"Congratulations. You have won 2 ticTokens\");\r\n        }\r\n        \r\n        nextPlayer(_gameId);\r\n        \r\n        emit Message(\"Wait for apponents turn\");\r\n        return (true, \"Your move has been recorded. Please wait for another player to make a move\");\r\n    }\r\n    \r\n    //check whose turns is it to make the move\r\n    function checkPlayerTurn(uint256 _gameId) private returns(address){\r\n        if(games[_gameId].playerTurn == Player.playerOne ){\r\n            return games[_gameId].playerOne;\r\n        }\r\n        \r\n        if(games[_gameId].playerTurn == Player.playerTwo){\r\n            return games[_gameId].playerTwo;\r\n        }\r\n        \r\n        return address(0);\r\n    }\r\n    \r\n    //after a making a move, this function will change the player who will make the move.\r\n    function nextPlayer(uint256 _gameId) private{\r\n        if(games[_gameId].playerTurn == Player.playerOne){\r\n            games[_gameId].playerTurn = Player.playerTwo;\r\n        }else{\r\n            games[_gameId].playerTurn = Player.playerOne;\r\n        }\r\n    }\r\n    \r\n\r\n    function calculateWinner(uint256 _gameId) private returns(Winner){\r\n        \r\n        //First check if the any row combination is being made up or not\r\n        Player player = winnerInRow(_gameId);\r\n        if(player == Player.playerOne){\r\n            return Winner.playerOne;\r\n        } if(player == Player.playerTwo){\r\n            return Winner.playerTwo;\r\n        }\r\n        \r\n        //Check if any column combination is being made up or not\r\n        player = winnerInColumn(_gameId);\r\n        if(player == Player.playerOne){\r\n            return Winner.playerOne;\r\n        } if(player == Player.playerTwo){\r\n            return Winner.playerTwo;\r\n        }\r\n        \r\n\r\n        //check if any diagonal combination is being made up or not\r\n        player = winnerInDiagnal(_gameId);\r\n        if(player == Player.playerOne){\r\n            return Winner.playerOne;\r\n        } if(player == Player.playerTwo){\r\n            return Winner.playerTwo;\r\n        }\r\n        \r\n        //check if board is full or not. If yes then set status as Draw game\r\n        if(isBoardFull(_gameId)){\r\n            return Winner.draw;\r\n        }\r\n        \r\n        return Winner.none;\r\n    }\r\n    \r\n    function winnerInRow(uint256 _gameId) private returns(Player){\r\n        for (uint8 x = 0; x < 3; x++) {\r\n            if (\r\n                games[_gameId].board[x][0] == games[_gameId].board[x][1]\r\n                && games[_gameId].board[x][1]  == games[_gameId].board[x][2]\r\n                && games[_gameId].board[x][0] != Player.none\r\n            ) {\r\n                return games[_gameId].board[x][0];\r\n            }\r\n        }\r\n        return Player.none;\r\n    }\r\n    \r\n    function winnerInColumn(uint256 _gameId) private returns(Player){\r\n        for (uint8 y = 0; y < 3; y++) {\r\n            if (\r\n                games[_gameId].board[0][y] == games[_gameId].board[1][y]\r\n                && games[_gameId].board[1][y] == games[_gameId].board[2][y]\r\n                && games[_gameId].board[0][y] != Player.none\r\n            ) {\r\n                return games[_gameId].board[0][y];\r\n            }\r\n        }\r\n        return Player.none;\r\n    }\r\n    \r\n    function winnerInDiagnal(uint256 _gameId) private returns(Player){\r\n        if (\r\n            games[_gameId].board[0][0] == games[_gameId].board[1][1]\r\n            && games[_gameId].board[1][1] == games[_gameId].board[2][2]\r\n            && games[_gameId].board[0][0] != Player.none\r\n        ) {\r\n            return games[_gameId].board[0][0];\r\n        }\r\n\r\n        if (\r\n            games[_gameId].board[0][2] == games[_gameId].board[1][1]\r\n            && games[_gameId].board[1][1] == games[_gameId].board[2][0]\r\n            && games[_gameId].board[0][2] != Player.none\r\n        ) {\r\n            return games[_gameId].board[0][2];\r\n        }\r\n        \r\n        return Player.none;\r\n    }\r\n    \r\n    function isBoardFull(uint256 _gameId) private returns(bool){\r\n        uint count = 0;\r\n        for(uint8 x = 0; x < 3 ; x++){\r\n            for(uint8 y = 0; y < 3;y++){\r\n                if(games[_gameId].board[x][y]==Player.playerOne || games[_gameId].board[x][y] == Player.playerTwo){\r\n                    count = count + 1;\r\n                }\r\n            }\r\n        }\r\n        if(count == 9){\r\n            return true;\r\n        }\r\n        \r\n        return false;\r\n    }\r\n    \r\n    //modifier\r\n    modifier hasTicCredits{\r\n        require(playerTokenCount[msg.sender] > 0, \"You need to buy tokens first\");\r\n        _;\r\n    }\r\n    \r\n    //events\r\n    event BoughtTokens(uint value);\r\n    event WithdrawMoney(address player);\r\n    event GameCreated(uint256 gameId, address gameCreator);\r\n    event JoinedGame(uint gameId,address player,string playerID);\r\n    event GameOver(uint gameId, string winStatus);\r\n    event PlayerMoved(uint gameId, uint x,uint y);\r\n    event Message(string message);\r\n}",
  "sourcePath": "C:/Users/Arpit Sharma/Desktop/tic/contracts/TicTacToe.sol",
  "compiler": {
    "name": "solc",
    "version": "0.5.12+commit.7709ece9.Emscripten.clang"
  },
  "schemaVersion": "3.0.19",
  "updatedAt": "2019-12-02T09:53:19.428Z",
  "networkType": "ethereum",
  "devdoc": {
    "methods": {}
  },
  "userdoc": {
    "methods": {}
  }
}